{
  "contractName": "Exchange",
  "abi": [
    {
      "constant": true,
      "inputs": [
        {
          "name": "",
          "type": "uint256"
        }
      ],
      "name": "bids",
      "outputs": [
        {
          "name": "maker",
          "type": "address"
        },
        {
          "name": "taker",
          "type": "address"
        },
        {
          "name": "relayer",
          "type": "address"
        },
        {
          "name": "status",
          "type": "string"
        }
      ],
      "payable": false,
      "stateMutability": "view",
      "type": "function"
    },
    {
      "constant": true,
      "inputs": [],
      "name": "maker",
      "outputs": [
        {
          "name": "",
          "type": "address"
        }
      ],
      "payable": false,
      "stateMutability": "view",
      "type": "function"
    },
    {
      "constant": true,
      "inputs": [],
      "name": "taker",
      "outputs": [
        {
          "name": "",
          "type": "address"
        }
      ],
      "payable": false,
      "stateMutability": "view",
      "type": "function"
    },
    {
      "constant": true,
      "inputs": [],
      "name": "relayer",
      "outputs": [
        {
          "name": "",
          "type": "address"
        }
      ],
      "payable": false,
      "stateMutability": "view",
      "type": "function"
    },
    {
      "inputs": [
        {
          "name": "makerAddress",
          "type": "address"
        },
        {
          "name": "takerAddress",
          "type": "address"
        },
        {
          "name": "relayerAddress",
          "type": "address"
        }
      ],
      "payable": false,
      "stateMutability": "nonpayable",
      "type": "constructor"
    },
    {
      "constant": false,
      "inputs": [],
      "name": "getRelayer",
      "outputs": [
        {
          "name": "",
          "type": "address"
        }
      ],
      "payable": false,
      "stateMutability": "nonpayable",
      "type": "function"
    },
    {
      "constant": false,
      "inputs": [],
      "name": "getMaker",
      "outputs": [
        {
          "name": "",
          "type": "address"
        }
      ],
      "payable": false,
      "stateMutability": "nonpayable",
      "type": "function"
    },
    {
      "constant": false,
      "inputs": [],
      "name": "getTaker",
      "outputs": [
        {
          "name": "",
          "type": "address"
        }
      ],
      "payable": false,
      "stateMutability": "nonpayable",
      "type": "function"
    },
    {
      "constant": false,
      "inputs": [
        {
          "name": "n",
          "type": "uint256"
        }
      ],
      "name": "getBid",
      "outputs": [
        {
          "name": "",
          "type": "address"
        },
        {
          "name": "",
          "type": "address"
        },
        {
          "name": "",
          "type": "address"
        },
        {
          "name": "",
          "type": "string"
        },
        {
          "name": "",
          "type": "bytes32"
        }
      ],
      "payable": false,
      "stateMutability": "nonpayable",
      "type": "function"
    },
    {
      "constant": false,
      "inputs": [],
      "name": "bidsCount",
      "outputs": [
        {
          "name": "",
          "type": "uint256"
        }
      ],
      "payable": false,
      "stateMutability": "nonpayable",
      "type": "function"
    },
    {
      "constant": false,
      "inputs": [],
      "name": "createBid",
      "outputs": [
        {
          "name": "",
          "type": "bool"
        }
      ],
      "payable": false,
      "stateMutability": "nonpayable",
      "type": "function"
    },
    {
      "constant": false,
      "inputs": [
        {
          "name": "_sender",
          "type": "address"
        }
      ],
      "name": "doCreateBid",
      "outputs": [
        {
          "name": "",
          "type": "bool"
        }
      ],
      "payable": false,
      "stateMutability": "nonpayable",
      "type": "function"
    },
    {
      "constant": false,
      "inputs": [
        {
          "name": "n",
          "type": "uint256"
        }
      ],
      "name": "PostBid",
      "outputs": [
        {
          "name": "",
          "type": "bool"
        }
      ],
      "payable": false,
      "stateMutability": "nonpayable",
      "type": "function"
    },
    {
      "constant": false,
      "inputs": [
        {
          "name": "_sender",
          "type": "address"
        },
        {
          "name": "n",
          "type": "uint256"
        }
      ],
      "name": "doPostBid",
      "outputs": [
        {
          "name": "",
          "type": "bool"
        }
      ],
      "payable": false,
      "stateMutability": "nonpayable",
      "type": "function"
    },
    {
      "constant": false,
      "inputs": [
        {
          "name": "n",
          "type": "uint256"
        }
      ],
      "name": "InterceptBid",
      "outputs": [
        {
          "name": "",
          "type": "bool"
        }
      ],
      "payable": false,
      "stateMutability": "nonpayable",
      "type": "function"
    },
    {
      "constant": false,
      "inputs": [
        {
          "name": "_sender",
          "type": "address"
        },
        {
          "name": "n",
          "type": "uint256"
        }
      ],
      "name": "doInterceptBid",
      "outputs": [
        {
          "name": "",
          "type": "bool"
        }
      ],
      "payable": false,
      "stateMutability": "nonpayable",
      "type": "function"
    },
    {
      "constant": true,
      "inputs": [
        {
          "name": "a",
          "type": "string"
        },
        {
          "name": "b",
          "type": "string"
        }
      ],
      "name": "compareStrings",
      "outputs": [
        {
          "name": "",
          "type": "bool"
        }
      ],
      "payable": false,
      "stateMutability": "view",
      "type": "function"
    },
    {
      "constant": false,
      "inputs": [
        {
          "name": "source",
          "type": "string"
        }
      ],
      "name": "stringToBytes32",
      "outputs": [
        {
          "name": "result",
          "type": "bytes32"
        }
      ],
      "payable": false,
      "stateMutability": "nonpayable",
      "type": "function"
    }
  ],
  "bytecode": "0x6060604052341561000f57600080fd5b6040516060806117a683398101604052808051906020019091908051906020019091908051906020019091905050826000806101000a81548173ffffffffffffffffffffffffffffffffffffffff021916908373ffffffffffffffffffffffffffffffffffffffff16021790555081600160006101000a81548173ffffffffffffffffffffffffffffffffffffffff021916908373ffffffffffffffffffffffffffffffffffffffff16021790555080600260006101000a81548173ffffffffffffffffffffffffffffffffffffffff021916908373ffffffffffffffffffffffffffffffffffffffff160217905550505050611695806101116000396000f3006060604052600436106100f1576000357c0100000000000000000000000000000000000000000000000000000000900463ffffffff16806330049b42146100f657806337b19719146101315780633c889e6f1461018b5780633fbffcef146102cf5780634423c5f1146102f857806350655d8c1461044a578063782b36021461049f57806383624074146104f45780638406c07914610521578063889d2e3c14610576578063a81b49b8146105cb578063bdc503731461061c578063bed34bba14610671578063cfb5192814610729578063eb58fdd5146107a2578063f5d19755146107dd578063fae66be814610832575b600080fd5b341561010157600080fd5b610117600480803590602001909190505061088c565b604051808215151515815260200191505060405180910390f35b341561013c57600080fd5b610171600480803573ffffffffffffffffffffffffffffffffffffffff1690602001909190803590602001909190505061089e565b604051808215151515815260200191505060405180910390f35b341561019657600080fd5b6101ac6004808035906020019091905050610a62565b604051808673ffffffffffffffffffffffffffffffffffffffff1673ffffffffffffffffffffffffffffffffffffffff1681526020018573ffffffffffffffffffffffffffffffffffffffff1673ffffffffffffffffffffffffffffffffffffffff1681526020018473ffffffffffffffffffffffffffffffffffffffff1673ffffffffffffffffffffffffffffffffffffffff168152602001806020018360001916600019168152602001828103825284818151815260200191508051906020019080838360005b83811015610290578082015181840152602081019050610275565b50505050905090810190601f1680156102bd5780820380516001836020036101000a031916815260200191505b50965050505050505060405180910390f35b34156102da57600080fd5b6102e2610cc4565b6040518082815260200191505060405180910390f35b341561030357600080fd5b6103196004808035906020019091905050610cd1565b604051808573ffffffffffffffffffffffffffffffffffffffff1673ffffffffffffffffffffffffffffffffffffffff1681526020018473ffffffffffffffffffffffffffffffffffffffff1673ffffffffffffffffffffffffffffffffffffffff1681526020018373ffffffffffffffffffffffffffffffffffffffff1673ffffffffffffffffffffffffffffffffffffffff168152602001806020018281038252838181546001816001161561010002031660029004815260200191508054600181600116156101000203166002900480156104385780601f1061040d57610100808354040283529160200191610438565b820191906000526020600020905b81548152906001019060200180831161041b57829003601f168201915b50509550505050505060405180910390f35b341561045557600080fd5b61045d610d6f565b604051808273ffffffffffffffffffffffffffffffffffffffff1673ffffffffffffffffffffffffffffffffffffffff16815260200191505060405180910390f35b34156104aa57600080fd5b6104b2610d94565b604051808273ffffffffffffffffffffffffffffffffffffffff1673ffffffffffffffffffffffffffffffffffffffff16815260200191505060405180910390f35b34156104ff57600080fd5b610507610dba565b604051808215151515815260200191505060405180910390f35b341561052c57600080fd5b610534610dc9565b604051808273ffffffffffffffffffffffffffffffffffffffff1673ffffffffffffffffffffffffffffffffffffffff16815260200191505060405180910390f35b341561058157600080fd5b610589610def565b604051808273ffffffffffffffffffffffffffffffffffffffff1673ffffffffffffffffffffffffffffffffffffffff16815260200191505060405180910390f35b34156105d657600080fd5b610602600480803573ffffffffffffffffffffffffffffffffffffffff16906020019091905050610e18565b604051808215151515815260200191505060405180910390f35b341561062757600080fd5b61062f611045565b604051808273ffffffffffffffffffffffffffffffffffffffff1673ffffffffffffffffffffffffffffffffffffffff16815260200191505060405180910390f35b341561067c57600080fd5b61070f600480803590602001908201803590602001908080601f0160208091040260200160405190810160405280939291908181526020018383808284378201915050505050509190803590602001908201803590602001908080601f0160208091040260200160405190810160405280939291908181526020018383808284378201915050505050509190505061106f565b604051808215151515815260200191505060405180910390f35b341561073457600080fd5b610784600480803590602001908201803590602001908080601f01602080910402602001604051908101604052809392919081815260200183838082843782019150505050505091905050611148565b60405180826000191660001916815260200191505060405180910390f35b34156107ad57600080fd5b6107c36004808035906020019091905050611179565b604051808215151515815260200191505060405180910390f35b34156107e857600080fd5b6107f061118b565b604051808273ffffffffffffffffffffffffffffffffffffffff1673ffffffffffffffffffffffffffffffffffffffff16815260200191505060405180910390f35b341561083d57600080fd5b610872600480803573ffffffffffffffffffffffffffffffffffffffff169060200190919080359060200190919050506111b5565b604051808215151515815260200191505060405180910390f35b6000610898338361089e565b50919050565b6000806000806108ac611379565b60006108b787610a62565b94509450945094509450600160009054906101000a900473ffffffffffffffffffffffffffffffffffffffff1673ffffffffffffffffffffffffffffffffffffffff168873ffffffffffffffffffffffffffffffffffffffff161480156109595750610958826040805190810160405280600681526020017f706f73746564000000000000000000000000000000000000000000000000000081525061106f565b5b15610a52576040805190810160405280600b81526020017f696e7465726365707465640000000000000000000000000000000000000000008152506003888154811015156109a357fe5b906000526020600020906004020160030190805190602001906109c792919061138d565b50600160009054906101000a900473ffffffffffffffffffffffffffffffffffffffff166003888154811015156109fa57fe5b906000526020600020906004020160010160006101000a81548173ffffffffffffffffffffffffffffffffffffffff021916908373ffffffffffffffffffffffffffffffffffffffff16021790555060019550610a57565b600095505b505050505092915050565b6000806000610a6f611379565b6000600386815481101515610a8057fe5b906000526020600020906004020160000160009054906101000a900473ffffffffffffffffffffffffffffffffffffffff16600387815481101515610ac157fe5b906000526020600020906004020160010160009054906101000a900473ffffffffffffffffffffffffffffffffffffffff16600388815481101515610b0257fe5b906000526020600020906004020160020160009054906101000a900473ffffffffffffffffffffffffffffffffffffffff16600389815481101515610b4357fe5b9060005260206000209060040201600301610c1560038b815481101515610b6657fe5b90600052602060002090600402016003018054600181600116156101000203166002900480601f016020809104026020016040519081016040528092919081815260200182805460018160011615610100020316600290048015610c0b5780601f10610be057610100808354040283529160200191610c0b565b820191906000526020600020905b815481529060010190602001808311610bee57829003601f168201915b5050505050611148565b818054600181600116156101000203166002900480601f016020809104026020016040519081016040528092919081815260200182805460018160011615610100020316600290048015610caa5780601f10610c7f57610100808354040283529160200191610caa565b820191906000526020600020905b815481529060010190602001808311610c8d57829003601f168201915b505050505091509450945094509450945091939590929450565b6000600380549050905090565b600381815481101515610ce057fe5b90600052602060002090600402016000915090508060000160009054906101000a900473ffffffffffffffffffffffffffffffffffffffff16908060010160009054906101000a900473ffffffffffffffffffffffffffffffffffffffff16908060020160009054906101000a900473ffffffffffffffffffffffffffffffffffffffff169080600301905084565b6000809054906101000a900473ffffffffffffffffffffffffffffffffffffffff1681565b600160009054906101000a900473ffffffffffffffffffffffffffffffffffffffff1681565b6000610dc533610e18565b5090565b600260009054906101000a900473ffffffffffffffffffffffffffffffffffffffff1681565b60008060009054906101000a900473ffffffffffffffffffffffffffffffffffffffff16905090565b6000610e2261140d565b6000809054906101000a900473ffffffffffffffffffffffffffffffffffffffff1673ffffffffffffffffffffffffffffffffffffffff168373ffffffffffffffffffffffffffffffffffffffff16141561103a576080604051908101604052808473ffffffffffffffffffffffffffffffffffffffff1681526020018473ffffffffffffffffffffffffffffffffffffffff1681526020018473ffffffffffffffffffffffffffffffffffffffff1681526020016040805190810160405280600781526020017f6372656174656400000000000000000000000000000000000000000000000000815250815250905060038054806001018281610f26919061147e565b9160005260206000209060040201600083909190915060008201518160000160006101000a81548173ffffffffffffffffffffffffffffffffffffffff021916908373ffffffffffffffffffffffffffffffffffffffff16021790555060208201518160010160006101000a81548173ffffffffffffffffffffffffffffffffffffffff021916908373ffffffffffffffffffffffffffffffffffffffff16021790555060408201518160020160006101000a81548173ffffffffffffffffffffffffffffffffffffffff021916908373ffffffffffffffffffffffffffffffffffffffff160217905550606082015181600301908051906020019061102d9291906114b0565b505050506001915061103f565b600091505b50919050565b6000600260009054906101000a900473ffffffffffffffffffffffffffffffffffffffff16905090565b6000816040518082805190602001908083835b6020831015156110a75780518252602082019150602081019050602083039250611082565b6001836020036101000a038019825116818451168082178552505050505050905001915050604051809103902060001916836040518082805190602001908083835b60208310151561110e57805182526020820191506020810190506020830392506110e9565b6001836020036101000a03801982511681845116808217855250505050505090500191505060405180910390206000191614905092915050565b6000611152611530565b82905060008151141561116b5760006001029150611173565b602083015191505b50919050565b600061118533836111b5565b50919050565b6000600160009054906101000a900473ffffffffffffffffffffffffffffffffffffffff16905090565b6000806000806111c3611379565b60006111ce87610a62565b94509450945094509450600260009054906101000a900473ffffffffffffffffffffffffffffffffffffffff1673ffffffffffffffffffffffffffffffffffffffff168873ffffffffffffffffffffffffffffffffffffffff16148015611270575061126f826040805190810160405280600781526020017f637265617465640000000000000000000000000000000000000000000000000081525061106f565b5b15611369576040805190810160405280600681526020017f706f7374656400000000000000000000000000000000000000000000000000008152506003888154811015156112ba57fe5b906000526020600020906004020160030190805190602001906112de92919061138d565b50600260009054906101000a900473ffffffffffffffffffffffffffffffffffffffff1660038881548110151561131157fe5b906000526020600020906004020160020160006101000a81548173ffffffffffffffffffffffffffffffffffffffff021916908373ffffffffffffffffffffffffffffffffffffffff1602179055506001955061136e565b600095505b505050505092915050565b602060405190810160405280600081525090565b828054600181600116156101000203166002900490600052602060002090601f016020900481019282601f106113ce57805160ff19168380011785556113fc565b828001600101855582156113fc579182015b828111156113fb5782518255916020019190600101906113e0565b5b5090506114099190611544565b5090565b608060405190810160405280600073ffffffffffffffffffffffffffffffffffffffff168152602001600073ffffffffffffffffffffffffffffffffffffffff168152602001600073ffffffffffffffffffffffffffffffffffffffff168152602001611478611569565b81525090565b8154818355818115116114ab576004028160040283600052602060002091820191016114aa919061157d565b5b505050565b828054600181600116156101000203166002900490600052602060002090601f016020900481019282601f106114f157805160ff191683800117855561151f565b8280016001018555821561151f579182015b8281111561151e578251825591602001919060010190611503565b5b50905061152c9190611544565b5090565b602060405190810160405280600081525090565b61156691905b8082111561156257600081600090555060010161154a565b5090565b90565b602060405190810160405280600081525090565b61161e91905b8082111561161a57600080820160006101000a81549073ffffffffffffffffffffffffffffffffffffffff02191690556001820160006101000a81549073ffffffffffffffffffffffffffffffffffffffff02191690556002820160006101000a81549073ffffffffffffffffffffffffffffffffffffffff02191690556003820160006116119190611621565b50600401611583565b5090565b90565b50805460018160011615610100020316600290046000825580601f106116475750611666565b601f0160209004906000526020600020908101906116659190611544565b5b505600a165627a7a72305820125a4b26b13709a717555f406768e2775dfb62f88a36153a19282409d5f45b790029",
  "source": "pragma solidity ^0.4.18;\ncontract Exchange {\n\n  address public maker;\n  address public taker;\n  address public relayer;\n\n\n  struct Bid {\n    address maker;\n    address taker;\n    address relayer;\n    string status;\n  }\n\n  Bid[] public bids;\n\n  uint256 storedData;\n\n\n\n  function Exchange(address makerAddress, address takerAddress, address relayerAddress ) public {\n    maker = makerAddress;\n    taker = takerAddress;\n    relayer = relayerAddress;\n  }\n\n  function getRelayer() public returns (address){\n    return relayer;\n  }\n\n  function getMaker() public returns (address){\n    return maker;\n  }\n\n  function getTaker() public returns (address){\n    return taker;\n  }\n\n  function getBid(uint n) public returns(address, address, address, string, bytes32){\n    return(bids[n].maker, bids[n].taker, bids[n].relayer, bids[n].status, stringToBytes32(bids[n].status));\n  }\n\n  function bidsCount() public returns (uint256) {\n    return bids.length;\n  }\n\n  function createBid() public returns (bool){\n    // To be able to test\n    doCreateBid(msg.sender);\n  }\n\n  function doCreateBid(address _sender)public returns (bool){\n    if(_sender == maker){\n      Bid memory bid = Bid({maker: _sender, taker: _sender, relayer: _sender, status: 'created'});\n      bids.push(bid);\n      return true;\n    }\n    return false;\n  }\n\n  function PostBid(uint n) public returns (bool) {\n    doPostBid(msg.sender, n);\n  }\n\n  function doPostBid(address _sender, uint n) returns (bool){\n    var (m, t, r, s, b) = getBid(n);\n    if(_sender == relayer && compareStrings(s, 'created')){\n      bids[n].status = 'posted';\n      bids[n].relayer = relayer;\n      return true;\n    }\n    return false;\n  }\n\n  function InterceptBid(uint n) public returns (bool) {\n    doInterceptBid(msg.sender, n);\n  }\n\n  function doInterceptBid(address _sender, uint n) returns (bool){\n    var (m, t, r, s, b) = getBid(n);\n    if(_sender == taker && compareStrings(s, 'posted')){\n      bids[n].status = 'intercepted';\n      bids[n].taker = taker;\n      return true;\n    }\n    return false;\n  }\n\n  function compareStrings(string a, string b) view returns (bool){\n    return keccak256(a) == keccak256(b);\n  }\n\n  function stringToBytes32(string memory source) returns (bytes32 result) {\n      bytes memory tempEmptyStringTest = bytes(source);\n      if (tempEmptyStringTest.length == 0) {\n          return 0x0;\n      }\n      assembly {\n          result := mload(add(source, 32))\n      }\n  }\n\n\n}\n",
  "sourcePath": "/Users/mq/smart-contracts/0x/contracts/Exchange.sol",
  "compiler": {
    "name": "solc",
    "version": "0.4.19+commit.c4cbbb05.Emscripten.clang"
  },
  "schemaVersion": "1.0.1",
  "updatedAt": "2018-04-16T20:45:02.251Z"
}