{
  "contractName": "Exchange",
  "abi": [
    {
      "constant": true,
      "inputs": [
        {
          "name": "",
          "type": "uint256"
        }
      ],
      "name": "bids",
      "outputs": [
        {
          "name": "maker",
          "type": "address"
        },
        {
          "name": "taker",
          "type": "address"
        },
        {
          "name": "relayer",
          "type": "address"
        },
        {
          "name": "status",
          "type": "string"
        }
      ],
      "payable": false,
      "stateMutability": "view",
      "type": "function"
    },
    {
      "constant": true,
      "inputs": [],
      "name": "maker",
      "outputs": [
        {
          "name": "",
          "type": "address"
        }
      ],
      "payable": false,
      "stateMutability": "view",
      "type": "function"
    },
    {
      "constant": true,
      "inputs": [],
      "name": "taker",
      "outputs": [
        {
          "name": "",
          "type": "address"
        }
      ],
      "payable": false,
      "stateMutability": "view",
      "type": "function"
    },
    {
      "constant": true,
      "inputs": [],
      "name": "relayer",
      "outputs": [
        {
          "name": "",
          "type": "address"
        }
      ],
      "payable": false,
      "stateMutability": "view",
      "type": "function"
    },
    {
      "inputs": [
        {
          "name": "makerAddress",
          "type": "address"
        },
        {
          "name": "takerAddress",
          "type": "address"
        },
        {
          "name": "relayerAddress",
          "type": "address"
        }
      ],
      "payable": false,
      "stateMutability": "nonpayable",
      "type": "constructor"
    },
    {
      "constant": false,
      "inputs": [],
      "name": "getRelayer",
      "outputs": [
        {
          "name": "",
          "type": "address"
        }
      ],
      "payable": false,
      "stateMutability": "nonpayable",
      "type": "function"
    },
    {
      "constant": false,
      "inputs": [],
      "name": "createBid",
      "outputs": [
        {
          "name": "",
          "type": "bool"
        }
      ],
      "payable": false,
      "stateMutability": "nonpayable",
      "type": "function"
    },
    {
      "constant": false,
      "inputs": [],
      "name": "PostBid",
      "outputs": [
        {
          "name": "",
          "type": "bool"
        }
      ],
      "payable": false,
      "stateMutability": "nonpayable",
      "type": "function"
    },
    {
      "constant": false,
      "inputs": [],
      "name": "InterceptBid",
      "outputs": [
        {
          "name": "",
          "type": "bool"
        }
      ],
      "payable": false,
      "stateMutability": "nonpayable",
      "type": "function"
    },
    {
      "constant": false,
      "inputs": [],
      "name": "closeDeal",
      "outputs": [
        {
          "name": "",
          "type": "bool"
        }
      ],
      "payable": false,
      "stateMutability": "nonpayable",
      "type": "function"
    },
    {
      "constant": false,
      "inputs": [
        {
          "name": "data",
          "type": "uint256"
        }
      ],
      "name": "set",
      "outputs": [],
      "payable": false,
      "stateMutability": "nonpayable",
      "type": "function"
    },
    {
      "constant": true,
      "inputs": [],
      "name": "get",
      "outputs": [
        {
          "name": "",
          "type": "uint256"
        }
      ],
      "payable": false,
      "stateMutability": "view",
      "type": "function"
    }
  ],
  "bytecode": "0x6060604052341561000f57600080fd5b604051606080610b7283398101604052808051906020019091908051906020019091908051906020019091905050826000806101000a81548173ffffffffffffffffffffffffffffffffffffffff021916908373ffffffffffffffffffffffffffffffffffffffff16021790555081600160006101000a81548173ffffffffffffffffffffffffffffffffffffffff021916908373ffffffffffffffffffffffffffffffffffffffff16021790555080600260006101000a81548173ffffffffffffffffffffffffffffffffffffffff021916908373ffffffffffffffffffffffffffffffffffffffff160217905550505050610a61806101116000396000f3006060604052600436106100af576000357c0100000000000000000000000000000000000000000000000000000000900463ffffffff1680634423c5f1146100b457806350655d8c1461020657806360fe47b11461025b5780636d4ce63c1461027e578063782b3602146102a757806383624074146102fc5780638406c07914610329578063869cd1ef1461037e57806388f2424b146103ab578063a7dad002146103d8578063bdc5037314610405575b600080fd5b34156100bf57600080fd5b6100d5600480803590602001909190505061045a565b604051808573ffffffffffffffffffffffffffffffffffffffff1673ffffffffffffffffffffffffffffffffffffffff1681526020018473ffffffffffffffffffffffffffffffffffffffff1673ffffffffffffffffffffffffffffffffffffffff1681526020018373ffffffffffffffffffffffffffffffffffffffff1673ffffffffffffffffffffffffffffffffffffffff168152602001806020018281038252838181546001816001161561010002031660029004815260200191508054600181600116156101000203166002900480156101f45780601f106101c9576101008083540402835291602001916101f4565b820191906000526020600020905b8154815290600101906020018083116101d757829003601f168201915b50509550505050505060405180910390f35b341561021157600080fd5b6102196104f8565b604051808273ffffffffffffffffffffffffffffffffffffffff1673ffffffffffffffffffffffffffffffffffffffff16815260200191505060405180910390f35b341561026657600080fd5b61027c600480803590602001909190505061051d565b005b341561028957600080fd5b610291610527565b6040518082815260200191505060405180910390f35b34156102b257600080fd5b6102ba610531565b604051808273ffffffffffffffffffffffffffffffffffffffff1673ffffffffffffffffffffffffffffffffffffffff16815260200191505060405180910390f35b341561030757600080fd5b61030f610557565b604051808215151515815260200191505060405180910390f35b341561033457600080fd5b61033c610782565b604051808273ffffffffffffffffffffffffffffffffffffffff1673ffffffffffffffffffffffffffffffffffffffff16815260200191505060405180910390f35b341561038957600080fd5b6103916107a8565b604051808215151515815260200191505060405180910390f35b34156103b657600080fd5b6103be6107b1565b604051808215151515815260200191505060405180910390f35b34156103e357600080fd5b6103eb6107ba565b604051808215151515815260200191505060405180910390f35b341561041057600080fd5b6104186107c3565b604051808273ffffffffffffffffffffffffffffffffffffffff1673ffffffffffffffffffffffffffffffffffffffff16815260200191505060405180910390f35b60038181548110151561046957fe5b90600052602060002090600402016000915090508060000160009054906101000a900473ffffffffffffffffffffffffffffffffffffffff16908060010160009054906101000a900473ffffffffffffffffffffffffffffffffffffffff16908060020160009054906101000a900473ffffffffffffffffffffffffffffffffffffffff169080600301905084565b6000809054906101000a900473ffffffffffffffffffffffffffffffffffffffff1681565b8060048190555050565b6000600454905090565b600160009054906101000a900473ffffffffffffffffffffffffffffffffffffffff1681565b60006105616107ed565b6000809054906101000a900473ffffffffffffffffffffffffffffffffffffffff1673ffffffffffffffffffffffffffffffffffffffff163373ffffffffffffffffffffffffffffffffffffffff161415610779576080604051908101604052803373ffffffffffffffffffffffffffffffffffffffff1681526020013373ffffffffffffffffffffffffffffffffffffffff1681526020013373ffffffffffffffffffffffffffffffffffffffff1681526020016040805190810160405280600781526020017f6372656174656400000000000000000000000000000000000000000000000000815250815250905060038054806001018281610665919061085e565b9160005260206000209060040201600083909190915060008201518160000160006101000a81548173ffffffffffffffffffffffffffffffffffffffff021916908373ffffffffffffffffffffffffffffffffffffffff16021790555060208201518160010160006101000a81548173ffffffffffffffffffffffffffffffffffffffff021916908373ffffffffffffffffffffffffffffffffffffffff16021790555060408201518160020160006101000a81548173ffffffffffffffffffffffffffffffffffffffff021916908373ffffffffffffffffffffffffffffffffffffffff160217905550606082015181600301908051906020019061076c929190610890565b505050506001915061077e565b600091505b5090565b600260009054906101000a900473ffffffffffffffffffffffffffffffffffffffff1681565b60006001905090565b60006001905090565b60006001905090565b6000600260009054906101000a900473ffffffffffffffffffffffffffffffffffffffff16905090565b608060405190810160405280600073ffffffffffffffffffffffffffffffffffffffff168152602001600073ffffffffffffffffffffffffffffffffffffffff168152602001600073ffffffffffffffffffffffffffffffffffffffff168152602001610858610910565b81525090565b81548183558181151161088b5760040281600402836000526020600020918201910161088a9190610924565b5b505050565b828054600181600116156101000203166002900490600052602060002090601f016020900481019282601f106108d157805160ff19168380011785556108ff565b828001600101855582156108ff579182015b828111156108fe5782518255916020019190600101906108e3565b5b50905061090c91906109c8565b5090565b602060405190810160405280600081525090565b6109c591905b808211156109c157600080820160006101000a81549073ffffffffffffffffffffffffffffffffffffffff02191690556001820160006101000a81549073ffffffffffffffffffffffffffffffffffffffff02191690556002820160006101000a81549073ffffffffffffffffffffffffffffffffffffffff02191690556003820160006109b891906109ed565b5060040161092a565b5090565b90565b6109ea91905b808211156109e65760008160009055506001016109ce565b5090565b90565b50805460018160011615610100020316600290046000825580601f10610a135750610a32565b601f016020900490600052602060002090810190610a3191906109c8565b5b505600a165627a7a72305820ef082426f00411a4e2fb8992b37eaa05815b4b04481432fdad3d0579a71b4aa90029",
  "source": "pragma solidity ^0.4.18;\ncontract Exchange {\n\n  address public maker;\n  address public taker;\n  address public relayer;\n\n\n  struct Bid {\n    address maker;\n    address taker;\n    address relayer;\n    string status;\n  }\n\n  Bid[] public bids;\n\n\n  uint256 storedData;\n\n\n\n  function Exchange(address makerAddress, address takerAddress, address relayerAddress ) public {\n    maker = makerAddress;\n    taker = takerAddress;\n    relayer = relayerAddress;\n  }\n\n  function getRelayer() public returns (address){\n    return relayer;\n  }\n\n  function createBid() public returns (bool){\n    if(msg.sender == maker){\n      Bid memory bid = Bid({maker: msg.sender, taker: msg.sender, relayer: msg.sender, status: 'created'});\n      bids.push(bid);\n      return true;\n    }\n    return false;\n  }\n\n  function PostBid() public returns (bool) {\n    return true;\n  }\n\n  function InterceptBid() public returns (bool) {\n    return true;\n\n  }\n\n  function closeDeal() public returns(bool) {\n    return true;\n\n  }\n\n  function set(uint256 data) public {\n    storedData = data;\n  }\n\n  function get() public constant returns (uint256){\n    return storedData;\n  }\n}\n",
  "sourcePath": "/Users/mq/smart-contracts/0x_exchange_protocol/contracts/Exchange.sol",
  "compiler": {
    "name": "solc",
    "version": "0.4.19+commit.c4cbbb05.Emscripten.clang"
  },
  "schemaVersion": "1.0.1",
  "updatedAt": "2018-04-15T20:49:43.864Z"
}